:100000000C9438010C94122E0C943F2E0C94600129
:100010000C9460010C9460010C9460010C946001DC
:100020000C9460010C9460010C9460010C94F7290D
:100030000C9460010C9460010C9460010C946001BC
:100040000C946C2E0C9460010C943D300C948B300D
:100050000C9460010C9460010C9460010C9460019C
:100060000C94A10B0C946001466C75736865642E4A
:100070000054696D652069732000466C757368696A
:100080006E672E004E4F4E45002000446F6E652077
:1000900073656E64696E672E0052616E646F6D20C9
:1000A0006E756D62657220696E206765745F6E653E
:1000B00078745F73656E642069732000200041626C
:1000C0006F757420746F2073656E642E2000476F07
:1000D000742064617461206F6E20726164696F2E98
:1000E0000064617461253032642E63737600496E5A
:1000F000697469616C697A6174696F6E2073756384
:1001000063656564656421004572726F7220696E73
:10011000697469616C697A696E6720726164696F7C
:100120002E004572726F72206C6F6164696E672079
:1001300073656E736F722E004920616D2062616479
:1001400067652000270043726561746564206E65F1
:1001500077206C6F672066696C65202700206865D2
:1001600072652E204372656174696E672E004920A6
:10017000736565206E6F2000547279696E67206622
:10018000696C6520004F70656E696E67206C6F67E3
:100190002066696C652E0052656164696E6720692E
:1001A000642E7478742E004572726F7220726561CD
:1001B00064696E6720534420636172640052616E0B
:1001C000646F6D206E756D62657220696E20676563
:1001D000745F6E6578745F73656E64206973200068
:1001E0001F1C1F1E1F1E1F1F1E1F1E1F7C3C3E5E4E
:1001F0002B3D3F2F5B5D3B2C2A225C000000010061
:100200000800400000010004050D0000000024006B
:1002100027002A0000000000250028002B00000015
:10022000000023002600290004040404040404043C
:100230000202020202020303030303030102040891
:100240001020408001020408102001020408102040
:100250000000000700020100000304060000000087
:10026000000000000505390A1411F726F731FE04D5
:1002700011241FBECFEFD8E0DEBFCDBF11E0A0E05C
:10028000B1E0E2E4FAE602C005900D92A63FB107A4
:10029000D9F717E0A6EFB1E001C01D92AD33B10769
:1002A000E1F712E0CEE6D2E004C02297FE010E9400
:1002B000D934C436D107C9F70E944D320C94143595
:1002C0000C940000A0E0B0E0E8E6F1E00C94E53426
:1002D000EC01A880B980CA80DB80A114B104C104FC
:1002E000D10441F484E2A82E89EDB82E8BE5C82E06
:1002F00087E0D82EC601B5012DE133EF41E050E093
:100300000E94BC3427EA31E440E050E00E946F34A0
:100310007B018C01C601B5012DE133EF41E050E0D6
:100320000E94BC34CA01B9012CEE34EF4FEF5FEFED
:100330000E946F346E0D7F1D801F911F97FF04C0B8
:100340006150704080409048688379838A839B83A2
:100350009B01AC015F77B901CA01CDB7DEB7EAE016
:100360000C9401350E946201089586E191E00E949B
:10037000620108956093160170931701809318012C
:10038000909319010895FC0188279927E8942191F9
:100390002032E9F3293010F02E30C8F32B3241F02F
:1003A0002D3239F4689404C00E942102820F911DFD
:1003B000219120532A30C0F31EF4909581959F4FD0
:1003C0000895FB01DC0102C005900D9241505040A0
:1003D000D8F70895FB01DC0104C08D9101908019CC
:1003E00021F441505040C8F7881B990B0895FB0138
:1003F000DC0102C001900D9241505040D8F70895A1
:10040000DC0101C06D9341505040E0F70895FC01BC
:100410008191861721F08823D9F79927089531977C
:10042000CF010895FB01DC014150504048F001909C
:100430000D920020C9F701C01D9241505040E0F7D5
:1004400008957AE0979F902D879F802D910D11241C
:100450000895AEE0B0E0EFE2F2E00C94EB340D89E9
:100460001E898F89988D97FF02C080E090E80197E0
:100470009E838D831A8309838EE08C839E01255E83
:100480003F4FCE010196698D7A8DA9010E945A02D3
:100490004D815E8157FD0AC02F8138854217530771
:1004A0000CF49A01020F131FF80110822E96E4E05B
:1004B0000C940735ABE0B0E0E0E6F2E00C94DD34FC
:1004C0003C012B015A01FC0117821682838181FDB8
:1004D00003C06FEF7FEFC6C19AE0892E1E0108941A
:1004E000211C311CF3012381F20123FD859123FF9F
:1004F00081912F01882309F4B2C1853239F423FD9B
:10050000859123FF81912F01853229F490E0B30179
:100510000E944D04E7CF982FFF24EE249924FFE199
:10052000FF15D0F09B3269F09C3228F4903259F0DC
:10053000933291F40EC09D3249F0903369F441E05A
:1005400024C052E0F52A84E0F82A28C098E0F92A6D
:1005500025C0E0E1FE2A22C0F7FC29C0892F805384
:100560008A3070F4F6FE05C0989C902C1124980EE9
:1005700015C0E89CE02C1124E80EF0E2FF2A0EC022
:100580009E3229F4F6FC6BC140E4F42A07C09C3685
:1005900019F450E8F52A02C0983649F4F20123FD17
:1005A000959123FF91912F01992309F0B8CF892FBD
:1005B0008554833018F08052833038F444E050E0A2
:1005C000A40EB51E5FE359830FC0933631F0933705
:1005D00079F0933509F056C020C0F50180818983F8
:1005E00042E050E0A40EB51E610101E010E012C02F
:1005F000F501C080D180F6FC03C06FEF7FEF02C031
:10060000692D70E042E050E0A40EB51EC6010E94C4
:1006100042048C015FE7F52214C0F501C080D1804F
:10062000F6FC03C06FEF7FEF02C0692D70E042E07F
:1006300050E0A40EB51EC6010E9437048C0150E89C
:10064000F52AF3FE07C01AC080E290E0B3010E94D1
:100650004D04EA948E2D90E008171907A8F30EC0F8
:10066000F601F7FC8591F7FE81916F0190E0B301EF
:100670000E944D04E110EA9401501040011511054B
:1006800079F7EAC0943611F0993669F5F7FE08C09B
:10069000F501208131814281538184E090E00AC0DC
:1006A000F501808191819C01442737FD4095542FAD
:1006B00082E090E0A80EB91E9FE6F92257FF09C01C
:1006C00050954095309521953F4F4F4F5F4FE0E853
:1006D000FE2ACA01B901A1012AE030E00E94790492
:1006E000D82ED21840C0953729F41F2D1F7E2AE03E
:1006F00030E01DC01F2D197F9F3661F0903720F428
:10070000983509F0ACC00FC0903739F0983709F030
:10071000A6C004C028E030E00AC0106114FD1460D7
:1007200020E130E004C014FD166020E132E017FF44
:1007300008C0F501608171818281938144E050E0BD
:1007400008C0F50180819181BC0180E090E042E029
:1007500050E0A40EB51EA1010E947904D82ED21833
:100760008FE7F82EF122F6FE0BC05EEFF522D914CA
:1007700038F4F4FE07C0F2FC05C08FEEF82202C088
:100780001D2D01C0192DF4FE0DC0FE01ED0DF11D52
:100790008081803319F499EEF92208C01F5FF2FEC0
:1007A00005C003C08F2D867809F01F5F0F2DF3FC65
:1007B00014C0F0FE0FC01E1510F09D2C0BC09D2C18
:1007C0009E0C911A1E2D06C080E290E0B3010E949B
:1007D0004D041F5F1E15C0F304C01E1510F4E11A6E
:1007E00001C0EE2404FF0FC080E390E0B3010E943B
:1007F0004D0402FF1DC001FD03C088E790E00EC05C
:1008000088E590E00BC0802F867891F001FF02C050
:100810008BE201C080E2F7FC8DE290E0B3010E9420
:100820004D0406C080E390E0B3010E944D049A9409
:10083000D914C0F3DA94F101ED0DF11D808190E03F
:10084000B3010E944D04DD20A9F706C080E290E0CC
:10085000B3010E944D04EA94EE20C1F743CEF301A8
:1008600066817781CB012B96E2E10C94F934FC018F
:100870000590615070400110D8F7809590958E0FCB
:100880009F1F0895FC016150704001900110D8F73E
:10089000809590958E0F9F1F08950F931F93CF9370
:1008A000DF938C01EB018B8181FF1BC082FF0DC0A8
:1008B0002E813F818C819D812817390764F4E8815E
:1008C000F9810193F983E88306C0E885F985802FD3
:1008D0000995892B31F48E819F8101969F838E83A8
:1008E00002C00FEF1FEFC801DF91CF911F910F9151
:1008F0000895FA01AA27283051F1203181F1E894B6
:100900006F936E7F6E5F7F4F8F4F9F4FAF4FB1E002
:100910003ED0B4E03CD0670F781F891F9A1FA11DFD
:10092000680F791F8A1F911DA11D6A0F711D811DFE
:10093000911DA11D20D009F468943F912AE0269FC3
:1009400011243019305D3193DEF6CF010895462F22
:100950004770405D4193B3E00FD0C9F7F6CF462F03
:100960004F70405D4A3318F0495D31FD405241936C
:1009700002D0A9F7EACFB4E0A69597958795779529
:100980006795BA95C9F700976105710508959B01B0
:10099000AC010A2E06945795479537952795BA9539
:1009A000C9F7620F731F841F951FA01D0895EF9252
:1009B0000F9381309105B1F46F5F7F4FE1F486EFC3
:1009C00091E00E94822B89EF91E060E679E042E0BD
:1009D00023E00AE0EE240E943B2B89E293E00E9490
:1009E000B80F09C0892B39F46F5F7F4F21F489E27A
:1009F00093E00E94CB0F0F91EF90089580E090E07C
:100A00006FEF7FEF0E94D704089581E090E06FEFD1
:100A10007FEF0E94D70408958F929F92AF92BF926A
:100A2000CF92DF92EF92FF920F931F93DF93CF93BA
:100A3000CDB7DEB72C970FB6F894DEBF0FBECDBF93
:100A400084E180931C018091F5029091F60265E1AA
:100A500073E04CE151E020E030E000E010E0EE24F3
:100A6000FF24CC24DD240E948925882319F48824BE
:100A7000992440C087E197E06EEC70E00E94CD328F
:100A8000909125039E3F31F587E197E060E071E0AA
:100A90000E94193440912103509122036091230355
:100AA0007091240387E197E02AE030E00E947033E0
:100AB00040912103509122036091230370912403FC
:100AC0008E010F5F1F4FC8010E94BE0DC8010E941A
:100AD0008E0E09C097FF07C080910703806880933E
:100AE000070390930803809125038093130391E0FB
:100AF000892E912C8E01095F1F4FC8010E94060F9D
:100B0000C8010E944F0E6093030370930403809307
:100B10000503909306038114910481F40E94B42E7E
:100B2000209148033091490340914A0350914B036F
:100B3000261737074807590708F08FC086EF91E05E
:100B40000E94D22B90930E0380930D0386EF91E0C9
:100B50000E94D62B909312038093110386EF91E0AD
:100B60000E94DA2B9093100380930F0320911103BE
:100B7000309112038091FF029091000328173907EA
:100B800020F4309300032093FF0220911103309151
:100B9000120380910103909102038217930720F4BE
:100BA000309302032093010320910F03309110032F
:100BB0008091FB029091FC022817390720F43093B2
:100BC000FC022093FB0220910F03309110038091CF
:100BD000FD029091FE028217930720F43093FE02EB
:100BE0002093FD0220910D0330910E038091F702B6
:100BF0009091F8022817390720F43093F8022093D7
:100C0000F70220910D0330910E038091F90290912B
:100C1000FA028217930720F43093FA022093F90224
:100C20000E94B42E7B018C0160E177E280E090E0CD
:100C300028E93AE340E050E00E9451346E0D7F1DF8
:100C4000801F911F609348037093490380934A0368
:100C500090934B0381E0882E912C80910303909117
:100C60000403A0910503B0910603809309039093B8
:100C70000A03A0930B03B0930C031092130310927A
:100C800014030E94B42E20914403309145034091F7
:100C9000460350914703261737074807590708F0BE
:100CA000A1C087E197E06EEB70E00E948A320E945B
:100CB000B42EAB01BC0187E197E02AE030E00E944E
:100CC000613387E197E06CEB70E00E948A324091DB
:100CD000440350914503609146037091470387E1B7
:100CE00097E02AE030E00E94703300E010E080914D
:100CF000F5029091F60267EF72E042E12FEF0E9459
:100D0000FC248091F5029091F6020E94E42464EFA5
:100D100071E080E090E020E233E040E050E00E94AB
:100D200051340E94C22E0F5F1F4F03301105F9F698
:100D30000E94B42E7B018C0160E177E280E090E0BC
:100D40000E942F345B016C0180E29EE4A0E0B0E0E1
:100D5000A80EB91ECA1EDB1E87E197E069E970E0A4
:100D60000E948A3287E197E0B601A5012AE030E0CF
:100D70000E94053487E197E0B801A7012AE030E03E
:100D80000E940534AE0CBF1CC01ED11EA0924403AD
:100D9000B0924503C0924603D092470387E197E0A3
:100DA0006BE870E00E94CD320E94B42EAB01BC0112
:100DB00087E197E02AE030E00E94613387E197E025
:100DC00069E870E00E948A324091440350914503E3
:100DD000609146037091470387E197E02AE030E095
:100DE0000E9470338091F7019091F801892B09F4EA
:100DF00080C0892809F47DC04091090350910A03FD
:100E000060910B0370910C0389E293E02AE030E0DB
:100E10000E94613389E293E06BE071E00E94193433
:100E200060910D0370910E0389E293E04AE050E077
:100E30000E94843389E293E06BE071E00E941934F0
:100E400060910F037091100389E293E04AE050E053
:100E50000E94843389E293E06BE071E00E941934D0
:100E6000609111037091120389E293E04AE050E02F
:100E70000E94843389E293E06BE071E00E941934B0
:100E800060911303662339F489E293E064E870E02B
:100E90000E948A3206C089E293E04AE050E00E9454
:100EA000953389E293E00E94AD3287E197E06AE7EB
:100EB00070E00E94CD3287E197E061E770E00E9428
:100EC0008A324091030350910403609105037091AD
:100ED000060387E197E02AE030E00E94703389E260
:100EE00093E00E941F1087E197E068E670E00E949F
:100EF000CD322C960FB6F894DEBF0FBECDBFCF918A
:100F0000DF911F910F91FF90EF90DF90CF90BF90F6
:100F1000AF909F908F900895AF92BF92CF92DF9243
:100F2000EF92FF920F931F93DF93CF93CDB7DEB76E
:100F3000E6970FB6F894DEBF0FBECDBF0E94B42E69
:100F40007B018C0160E177E280E090E00E942F3429
:100F50005B016C0180E29EE4A0E0B0E0A80EB91E47
:100F6000CA1EDB1E87E197E06DEB71E00E948A32BA
:100F700087E197E0B601A5012AE030E00E94053440
:100F800087E197E0B801A7012AE030E00E9405342C
:100F9000AE0CBF1CC01ED11EA0924403B0924503EC
:100FA000C0924603D09247030E94B42E7B018C016D
:100FB00060E177E280E090E028E93AE340E050E049
:100FC0000E9451346E0D7F1D801F911F6093480356
:100FD0007093490380934A0390934B0382E1E7EFB8
:100FE000F2E0DF011D928A95E9F740911C0125E1AD
:100FF00033E0C90160E070E050E00E94000210920E
:1010000007038FEF9FEF9093F8028093F7021092FF
:10101000FA021092F9029093FC028093FB02109264
:10102000FE021092FD02909300038093FF02109243
:101030000203109201031092080387E197E040E851
:1010400055E260E070E00E94C6308FE993E00E94B4
:10105000DD0A0E948C0E8AE061E00E94562F8AE031
:1010600061E00E94562F89E194E06AE04FEF2FEF94
:101070000FEF0E944514882359F410921B0110921F
:101080001A0187E197E067EA71E00E94CD3219C149
:1010900087E197E067E971E00E94CD3260911D0120
:1010A00070911E0189E194E00E94F711882309F4F0
:1010B00050C040911D0150911E01CE01019669E181
:1010C00074E021E00E9420138B819C8190932C037B
:1010D00080932B038D819E81AF81B88580932D03F2
:1010E00090932E03A0932F03B093300389859A85A4
:1010F000AB85BC858093310390933203A093330377
:10110000B0933403A5E3B3E0FE013D968DE001907A
:101110000D928150E1F78A8D9B8D909343038093CC
:101120004203CE0101960E94CB0F00E010E08091B7
:101130001C0190E0081719070CF032C189E293E016
:101140000E942710F801EB5EFC4F80830F5F1F4F5A
:10115000EECF87E197E065E871E00E94CD3200E0D4
:1011600010E04CE4E42E43E0F42E3CE0A32EB12C3E
:1011700021EEC22E20E0D22E8DB79EB708970FB673
:10118000F8949EBF0FBE8DBFEDB7FEB73196ADB7D9
:10119000BEB71296FC92EE921197B382A282D582CC
:1011A000C482178306830E9429028DB79EB70896D2
:1011B0000FB6F8949EBF0FBE8DBF87E197E068E73A
:1011C00071E00E948A3287E197E0B7010E941C34E7
:1011D00089E194E0B7010E94F711882309F060C00B
:1011E00087E197E06EE671E00E948A3287E197E03E
:1011F000B7010E94193487E197E06DE571E00E9424
:10120000CD32CE014C9669E174E0A70123E10E9442
:1012100020138E8D9F8D90932C0380932B0388A198
:1012200099A1AAA1BBA180932D0390932E03A09313
:101230002F03B09330038CA19DA1AEA1BFA18093D9
:10124000310390933203A0933303B0933403A5E3A7
:10125000B3E0FE01B8968DE001900D928150E1F768
:101260008DA99EA99093430380934203CE014C968F
:101270000E94CB0F87E197E066E471E00E948A321A
:1012800087E197E06CE473E00E94193487E197E00E
:1012900064E471E00E94CD320436110561F406C0A9
:1012A0000F5F1F4F0436110509F066CF1092F80149
:1012B0001092F70106C081E090E09093F8018093CE
:1012C000F701809107038823B1F488E593E060E09B
:1012D00070E00E94E209809307038F3F61F465E6A6
:1012E00070E080E090E02FE730E040E050E00E94C6
:1012F00051346093070387E197E068E371E00E944F
:101300008A3287E197E0609107034AE050E00E944B
:10131000A73386EF91E00E94592C882351F4109254
:101320001B0110921A0187E197E062E271E00E94CE
:10133000CD3283E090E00E945D32182F092F69EFD3
:1013400071E0409107030E94DF241093F50200939F
:10135000F602812F902F0E944025882351F410928D
:101360001B0110921A0187E197E068E071E00E948A
:10137000CD3287E197E06EEE70E00E94CD32E696C6
:101380000FB6F894DEBF0FBECDBFCF91DF911F9196
:101390000F91FF90EF90DF90CF90BF90AF900895A6
:1013A00085E193E00E94C301482F8093070388E5FD
:1013B00093E060E070E00E94E90989E293E00E9416
:1013C0000D10C7CEF999FECF72BD61BDF89A80B5F8
:1013D0000895F999FECF1FBA72BD61BD40BD0FB629
:1013E000F894FA9AF99A0FBE089581E080939E03CB
:1013F00060937B0310929C0310929D03089581E0FB
:1014000080939E0360937B0310929C0310929D0334
:10141000089520917A0330E080917903281B3109E7
:10142000C90108954091790380917A03481718F013
:101430002FEF3FEF0AC0E42FF0E0E75AFC4F808126
:10144000282F30E04F5F40937903C9010895E09160
:10145000790380917A03E81718F0EFEFFFEF06C0E9
:10146000F0E0E75AFC4F8081E82FF0E0CF010895CB
:1014700008951092A2031092A10388EE93E0A0E0D9
:10148000B0E08093A3039093A403A093A503B0932B
:10149000A6038DE291E09093A00380939F030895AB
:1014A000CF92DF92EF92FF920F931F93CF93DF9330
:1014B0007C016B018A0180919E038823A1F0C0E02A
:1014C000D0E00DC0D701ED91FC91D601AC0FBD1F4E
:1014D0000190F081E02DC7016C9109952196C0170C
:1014E000D10780F304C0CB01642F0E94860BC80192
:1014F000DF91CF911F910F91FF90EF90DF90CF90F0
:101500000895DF93CF930F92CDB7DEB7FC016983C7
:1015100080919E038823C9F080919D03803238F02A
:1015200081E090E09383828320E030E015C08091D9
:101530009C03E82FF0E0E458FC4F998190838F5F83
:1015400080939C0380939D0305C0CE01019661E0CA
:101550000E94860B21E030E0C9010F90CF91DF910E
:1015600008950F93062F80917B036CE773E0409101
:101570009D0321E00E94310B10929C0310929D0369
:1015800010929E030F91089561E00E94B10A0895A0
:10159000413208F040E2862F69E573E00E94E80AD4
:1015A0001092790380937A03089521E00E94C80A7B
:1015B000089521E00E94C80A0895109279031092BC
:1015C0007A0310929C0310929D030E94320D08959D
:1015D000382F413210F040E042C08091AB038823A5
:1015E000E1F791E09093AB032093AD038FEF8093ED
:1015F00018041092D30341504093D4034F5F90934B
:10160000AC038091AC03330F832B8093AC038091A8
:10161000AE03813041F41092AE038091AC0380930D
:10162000BB0085EC01C085EE8093BC008091AB03CC
:101630008130E1F38091D303841710F44091D303F8
:1016400020E030E00AC0FB01E20FF31FD901AD54E6
:10165000BC4F8C9180832F5F3F4F2417A0F3842FC2
:1016600008950F931F93582F122F413210F081E0ED
:101670004AC08091AB038823E1F782E08093AB03FB
:101680000093AD038FEF809318041092D30340931F
:10169000D403A3EBB3E0FB0102C081918D938E2FA5
:1016A000861B8417D0F31092AC038091AC03550FC6
:1016B000852B8093AC038091AE03813041F410926E
:1016C000AE038091AC038093BB0085EC01C085EE36
:1016D0008093BC00112321F08091AB038230E1F3B1
:1016E000809118048F3F11F480E00DC080911804A0
:1016F000803211F482E007C080911804803311F029
:1017000084E001C083E01F910F910895482F61325A
:1017100010F081E008958091AB03843011F082E0F5
:1017200008956093F603A5EDB3E0842F9C01F901C1
:1017300002C081918D938E2F841B8617D0F380E099
:1017400008951F920F920FB60F9211242F933F937B
:101750004F935F936F937F938F939F93AF93BF93B9
:10176000EF93FF938091B90090E0887F907080366E
:10177000910509F4F2C081369105CCF588329105C6
:1017800009F47BC089329105B4F48031910509F4E4
:101790006FC0813191053CF4009709F447C1089767
:1017A00009F04FC165C08831910509F466C0809782
:1017B00009F047C182C08034910509F4A4C0813486
:1017C000910544F48033910509F482C0C89709F06B
:1017D00038C189C08035910509F489C088359105E3
:1017E00009F496C08834910509F02BC1AEC0883940
:1017F000910509F413C189399105ECF488379105F5
:1018000009F4ABC0893791054CF48836910509F489
:10181000A4C08037910509F014C19FC08838910594
:1018200009F4FCC08039910509F49DC08038910508
:1018300009F007C198C0803B910509F4C6C0813BFF
:1018400091054CF4803A910509F49FC0883A9105BE
:1018500009F0F7C0BAC0803C910509F4E3C0883CA8
:10186000910509F4DFC0883B910509F0EAC0C2C0C8
:101870008091AC038093BB00CFC09091D303809143
:10188000D403981768F49091D303E92FF0E0ED5456
:10189000FC4F80818093BB009F5F9093D303BCC0BB
:1018A0008091AD03882309F44BC085ED8093BC0083
:1018B0008091BC0084FDFCCFC2C080E280931804FC
:1018C00085ED8093BC008091BC0084FDFCCFB7C047
:1018D00080E38093180485ED8093BC008091BC0068
:1018E00084FDFCCFACC088E3809318049BC080913A
:1018F000D3039091BB00E82FF0E0ED54FC4F9083B0
:101900008F5F8093D3039091D3038091D40382C0DF
:101910008091D3039091BB00E82FF0E0ED54FC4F91
:1019200090838F5F8093D3038091AD03882341F030
:1019300085ED8093BC008091BC0084FDFCCF7FC00E
:1019400081E08093AE0384EA6EC085ED8093BC0095
:101950008091BC0084FDFCCF72C083E08093AB0318
:101960001092170459C080911704803208F056C0B5
:10197000809117049091BB00E82FF0E0E950FC4FF4
:1019800090838F5F8093170447C080911704803243
:1019900030F4E0911704F0E0E950FC4F108285ED3F
:1019A0008093BC008091BC0084FDFCCF1092AB03FF
:1019B00060911704E091B103F091B20387EF93E0D7
:1019C00070E00995109217042DC084E08093AB035A
:1019D0001092F5031092F603E091AF03F091B0037B
:1019E00009958091F603882329F481E08093F6031A
:1019F0001092D5039091F503E92FF0E0EB52FC4FE4
:101A000080818093BB009F5F9093F5039091F503D5
:101A10008091F603981710F485EC01C085E8809357
:101A2000BC000FC085EC8093BC0009C01092180464
:101A300085ED8093BC008091BC0084FDFCCF1092AA
:101A4000AB03FF91EF91BF91AF919F918F917F91E8
:101A50006F915F914F913F912F910F900FBE0F901B
:101A60001F9018951092AB0381E08093AD03109204
:101A7000AE0382E161E00E94952F83E161E00E9464
:101A8000952FE9EBF0E080818E7F808380818D7FD0
:101A9000808388E48093B80085E48093BC00089537
:101AA0008CB58F7B8CBD0895882319F48CB580622A
:101AB00002C08CB58F7D8CBD08959CB5937F982B0B
:101AC0009CBD08952CB5382F33702C7F322B3CBD34
:101AD0002DB590E0959587959595879581702E7F8A
:101AE000822B8DBD08958AE061E00E94952F8AE0E7
:101AF00061E00E94562F8CB580618CBD8CB58064EE
:101B00008CBD8DE061E00E94562F8BE061E00E9469
:101B1000562F0895DC0187E0A03DB80710F0A05DC6
:101B2000B74050E020EE31E091E007C0F901849128
:101B3000480F511D9F5F2F5F3F4F9617B8F36330DB
:101B400038F0CD0183709070892B11F44F5F5F4F97
:101B50008DE691E0A89F9001A99F300DB89F300DB0
:101B60001124215030401396B695A795B695A795A8
:101B70002A0F3B1F240F351FC9010895EF92FF92D2
:101B80000F931F93CF93DF93EC017A018B0180E8D1
:101B90009CEBA2E9B7ECE80EF91E0A1F1B1FC80157
:101BA000B7012CE330E040E050E00E949A346D83AE
:101BB000C801B7012CE330E040E050E00E949A34C5
:101BC000122F032FF42EE52E622F732F842F952FC3
:101BD0002CE330E040E050E00E949A346C83612FA7
:101BE000702F8F2D9E2D2CE330E040E050E00E94BE
:101BF0009A34122F032FF42EE52E622F732F842F89
:101C0000952F28E130E040E050E00E949A346B8349
:101C1000612F702F8F2D9E2D28E130E040E050E0A5
:101C20000E949A3460E0A3E9BEEF70E0862F90E056
:101C300083709070892B09F471E0E62FEF5F472FD6
:101C400050E0CA0183599E4F2817390738F0CD015B
:101C5000841B950B280F391F6E2FE7CF688341E057
:101C6000E42FF0E0E152FE4F8491772319F04230E7
:101C700009F48F5F90E0542F5F5F2817390720F039
:101C8000281B390B452FECCF4983822F8F5F8A8326
:101C9000DF91CF911F910F91FF90EF9008950F93D7
:101CA0001F938C01FC01808190E0618142810E9440
:101CB0008A0DA0E0B0E0BC01CD0128E130E040E0B9
:101CC00050E00E946F34F8012381620F711D811D65
:101CD000911D2CE330E040E050E00E946F34F801A9
:101CE0002481620F711D811D911D2CE330E040E0C5
:101CF00050E00E946F349B01AC01F8018581280FF0
:101D0000311D411D511D20583C4B4249574CB901D2
:101D1000CA011F910F91089581E00895DF92EF921B
:101D2000FF920F931F937C010FE913E0C80168E64F
:101D300070E00E94FF09C80160E00E94810AF7017B
:101D40002581822F6AE00E948E3496E0D92E8D9DE7
:101D5000C0011124280FC801622F0E94810AF701D7
:101D60002481822F6AE00E948E348D9DC00111244F
:101D7000280FC801622F0E94810AF7012381822F58
:101D80006AE00E948E348D9DC0011124280FC80185
:101D9000622F0E94810AC80160E00E94810AF70157
:101DA0002281822F6AE00E948E348D9DC001112411
:101DB000280FC801622F0E94810AF7012181822F1A
:101DC0006AE00E948E348D9DC0011124280FC80145
:101DD000622F0E94810AF7012081822F6AE00E940F
:101DE0008E348D9DC0011124280FC801622F0E94DE
:101DF000810AC80160E00E94810AC8010E94C40AE9
:101E00001F910F91FF90EF90DF9008959F92AF92F6
:101E1000BF92CF92DF92EF92FF920F931F93A82E63
:101E2000992E0FE913E0C80168E670E00E94FF09EF
:101E3000C80160E00E94810AC8010E94C40AC8016A
:101E400068E670E047E050E00E94D50AC8010E94B1
:101E5000120A9FE7B92EB822C8010E94120AC82EA2
:101E6000C8010E94120AD82EC8010E94120AC80195
:101E70000E94120AE82EC8010E94120AF82EC80118
:101E80000E94120A282F30E0B4E035952795BA95C4
:101E9000E1F74AEF5FEFB901649F9001659F300D54
:101EA000749F300D1124820FEA2DF92D80838F2D20
:101EB00090E0A4E095958795AA95E1F79C01249F71
:101EC000C001259F900D349F900D1124F80EF182D2
:101ED0008E2D90E074E0959587957A95E1F7BC0199
:101EE000649FC001659F900D749F900D1124E80EB2
:101EF000E2828D2D90E064E0959587956A95E1F7F3
:101F00009C01249FC001259F900D349F900D1124AA
:101F1000D80ED3828C2D90E034E0959587953A9534
:101F2000E1F7BC01649FC001659F900D749F900D07
:101F30001124C80EC4828B2D90E024E095958795DE
:101F40002A95E1F79C01249FC001259F900D349FA5
:101F5000900D1124B80EB5828A2D992D1F910F91E5
:101F6000FF90EF90DF90CF90BF90AF909F9008953B
:101F7000FC011382128288EE93E0A0E0B0E084833B
:101F80009583A683B7838DE391E091838083128E3E
:101F9000118E14860895FC018DE391E09183808376
:101FA0000895DF93CF930F92CDB7DEB7FC0169831D
:101FB000A081B18112962D913C911397BE016F5F64
:101FC0007F4F41E050E0F90109950F90CF91DF91EB
:101FD0000895DC015996ED91FC915A97309719F4C8
:101FE00020E030E018C023893489458956898285EC
:101FF0009385A485B585281B390B4A0B5B0B2030D4
:10200000B0E83B07B0E04B07B0E05B0720F02FEFF4
:102010003FE740E050E0C9010895CF93DF93EC0122
:10202000898D9A8D009741F00E94AD19898D9A8D06
:102030000E947A2D1A8E198EDF91CF910895FC019E
:10204000818D928D009711F00E9463190895DF939E
:10205000CF930F92CDB7DEB7FC01818D928D0097A3
:1020600049F0BE016F5F7F4F41E050E00E94841A4B
:10207000019719F02FEF3FEF03C08981282F30E03F
:10208000C9010F90CF91DF910895EF92FF920F93C6
:102090001F93DF93CF930F92CDB7DEB77C01DC01A6
:1020A00059968D919C915A97009719F400E010E091
:1020B0001FC0BE016F5F7F4F41E050E00E94841A55
:1020C000019719F00FEF1FEF13C08981082F10E05F
:1020D000D7015996ED91FC915A97428553856485B5
:1020E00075854150504060407040CF010E949D185E
:1020F000C8010F90CF91DF911F910F91FF90EF904A
:102100000895CF93DF93EC01E98DFA8D309761F05C
:1021100013821282CF010E94C91C9C01E98DFA8DA5
:1021200082819381892B31F081E090E09B838A83C7
:1021300020E030E0C901DF91CF910895EF92FF9246
:102140000F931F93CF93DF93EC01F62EE72E8A01B6
:102150001B821A8288EE93E0A0E0B0E08C839D831E
:10216000AE83BF838DE391E0998388838DE190E016
:102170000E94DD2C9A8F898F009791F0DC018F2DC2
:102180009E2D9C01F9018DE101900D928150E1F7A6
:10219000CE010C96B8014CE050E00E941202188E5D
:1021A000DF91CF911F910F91FF90EF9008950F93C2
:1021B0001F93CF93DF938C01FB01C081D181FC0180
:1021C000EC0FFD1F80818F3209F4219698012C0FAE
:1021D0003D1FA0E0B0E00BC0FA01EA0FFB1F8083B7
:1021E000119621962F5F3F4FAC30B10531F0F901C8
:1021F00080818F3211F0882379F7A40FB51F1C92CC
:10220000F801EC0FFD1F80818F3209F42196FB014C
:10221000D183C083C00FD11F8881811181E0DF91FC
:10222000CF911F910F91089510921E0410921F04D8
:10223000109222041092240482E090E0A0E0B0E02A
:102240008093260490932704A0932804B093290434
:1022500010923D0410924704109246048DE491E0E0
:102260009093450480934404109249040895EF929A
:10227000FF921F93DF93CF93CDB7DEB76D970FB665
:10228000F894DEBF0FBECDBF9C01AB011C821B8248
:102290008DE491E09A8389831E827E010894E11C7B
:1022A000F11CC701B90121E00E94F61E182F8823F6
:1022B00019F0C7010E94AD19812F6D960FB6F894E1
:1022C000DEBF0FBECDBFCF91DF911F91FF90EF908A
:1022D00008952F923F924F925F926F927F928F92CA
:1022E0009F92BF92CF92DF92EF92FF920F931F9334
:1022F000DF93CF93CDB7DEB7C954D0400FB6F89473
:10230000DEBF0FBECDBF1C017B012A0139011B8A34
:102310001A8A8DE491E0998B888B1D8A18AA1FA6D2
:102320009EA78DA71AAA1A8219828B0120E1C22EBC
:10233000D12CCC0EDD1E93E0892E912C8C0E9D1E8F
:1023400003C0C80186016C01C101BE016F5F7F4FF0
:10235000A4010E94D710B82E40E0882309F441E080
:10236000C801B4019301F2010995882339F40E15CF
:102370001F0519F1C8010E94AD191FC0BB20A9F0AB
:10238000C601B801A40121E00E94F61EB82E0E1568
:102390001F0519F0C8010E94AD19BB2071F00E1580
:1023A0001F0579F6CE018D96CDCF0E151F0519F0BC
:1023B000C8010E94AD1981E001C080E0C75BDF4F1A
:1023C0000FB6F894DEBF0FBECDBFCF91DF911F9146
:1023D0000F91FF90EF90DF90CF90BF909F908F90E4
:1023E0007F906F905F904F903F902F9008959B014A
:1023F000BC01655D7F4FC90147E351E120E030E05A
:102400000E94691108952F923F924F925F926F92AE
:102410007F928F929F92AF92BF92CF92DF92EF9274
:10242000FF920F931F93DF93CF93CDB7DEB7C754BF
:10243000D0400FB6F894DEBF0FBECDBF582E492E48
:10244000FB013A01190185A596A5998B888B2DE48E
:1024500031E03F872E8787A58A8B80A98B8B81A946
:1024600092A9A3A9B4A98C8B9D8BAE8BBF8B85A998
:1024700096A9A7A9B0AD888F998FAA8FBB8F81AD80
:1024800092ADA3ADB4AD8C8F9D8FAE8FBF8F85AD58
:1024900088A3FE9681919191A191B19189A39AA36C
:1024A000ABA3BCA381919191A191B1918DA39EA366
:1024B000AFA3B8A7808191819AA789A71EA61DA660
:1024C0003CA72BA718AA7A018E01025F1F4F3BE29F
:1024D000A32EB12CAC0EBD1E4E010894811C911C84
:1024E00035C0D7018C918F3221F40894E11CF11C86
:1024F0002DC0422F4E194D3008F04CE0C42EDD2483
:10250000C401B701A6010E941202F401EC0DFD1DE9
:102510001082C5010E94AD19C501B801A40121E0D6
:102520000E94F61E882351F4E52DF42D13821282A9
:102530008DE491E091838083158266C0EC0CFD1CD4
:10254000C8010E94AD19C50158018C01C7016FE295
:1025500070E00E9407029C01009719F6E618F70840
:10256000F101F182E082E52DF42DD80112968D91D2
:102570009C911397938382838DE491E09183808370
:1025800014968C911497848315968C911597858356
:1025900016962D913D914D915C9119972683378325
:1025A000408751871A962D913D914D915C911D97D1
:1025B00022873387448755871E962D913D914D91F3
:1025C0005C91519726873787408B518B52968C911F
:1025D0005297828B53962D913D914D915C915697D8
:1025E000238B348B458B568B57962D913D914D9176
:1025F0005C915A97278B308F418F528F5B968D91CC
:102600009C915C97948F838F852D942DC95BDF4FB0
:102610000FB6F894DEBF0FBECDBFCF91DF911F91F3
:102620000F91FF90EF90DF90CF90BF90AF909F9071
:102630008F907F906F905F904F903F902F90089574
:102640009F92AF92BF92CF92DF92EF92FF920F9341
:102650001F93DF93CF93CDB7DEB7C657D0400FB6E9
:10266000F894DEBF0FBECDBFC82E992E8A01D22EA0
:1026700043E0A42EB12CAC0EBD1EC501A8019E01E5
:102680002F5F3F4F0E940312E980FA80E00EF11E97
:10269000F70180814DE451E02885882309F03FC08F
:1026A0008D819E819BA38AA359A348A38F818CA36C
:1026B0002DA389859A85AB85BC858EA39FA3A8A7EA
:1026C000B9A78D859E85AF85B8898AA79BA7ACA73A
:1026D000BDA789899A89AB89BC898EA79FA7A8AB1A
:1026E000B9AB8D898AAB8E899F89A88DB98D8BAB4B
:1026F0009CABADABBEAB8A8D9B8DAC8DBD8D8FABD6
:1027000098AFA9AFBAAF8E8D9F8D9CAF8BAF8C2D3C
:10271000992DBE01605E7F4F44E151E09FC0FE01F4
:10272000FF96118210825EAF4DAFFE01EE5BFF4F50
:1027300010822223A9F02250CE01CD96223048F4F7
:1027400064E474E0A7012D2D0E94F61E882381F415
:1027500007C0B501A7012D2D0E94F61E882329F47C
:102760008C2D992D0E94B80F7BC0C5010E94AD1918
:10277000F6E0DF2259F0FE01E05BFF4F408151811E
:1027800062817381CE01CD960E949D189E01265ACA
:102790003F4FFE01FF9680819181F90193838283EF
:1027A0008DE491E091838083FE01EF5BFF4F808198
:1027B000F9018483FE01EE5BFF4F8081F90185837F
:1027C000FE01ED5BFF4F80819181A281B381F90110
:1027D00086839783A087B187FE01E95BFF4F8081E5
:1027E0009181A281B381F90182879387A487B587FC
:1027F000FE01E55BFF4F80819181A281B381F901E8
:1028000086879787A08BB18BFE01E15BFF4F8081AC
:10281000F901828BFE01E05BFF4F80819181A281F3
:10282000B381F901838B948BA58BB68BFE01EC5A97
:10283000FF4F80819181A281B381F901878B908FB5
:10284000A18FB28FFE01E85AFF4F80819181F9017B
:10285000948F838F8C2D992DB901A7010E949E1012
:102860008C2D992DCA58DF4F0FB6F894DEBF0FBEDE
:10287000CDBFCF91DF911F910F91FF90EF90DF902F
:10288000CF90BF90AF909F900895EF920F931F93BA
:10289000CF93DF93EC01362F542F722FE02E61E09F
:1028A000432F252F072F0E9438178823D1F08E0140
:1028B000035F1F4FC801BE0141E00E94972088239B
:1028C00039F4C801BE0140E00E949720882349F0F6
:1028D000CE018B96B8010E94E31B882319F081E09A
:1028E00001C080E0DF91CF911F910F91EF9008958B
:1028F000382F809163048F3F31F43EBD0DB407FE45
:10290000FDCF8EB50895F894A0916404B09165044C
:1029100050916604252F2095E0916704F09168049A
:1029200040916904642F609590E08C9182238C9390
:1029300037FF03C08081842B02C08081862380837F
:102940008C91852B8C939F5F983011F0330FEDCFD6
:1029500000000000000000008C9128232C93789444
:102960000895809163048F3F31F48EBD0DB407FE4E
:10297000FDCF2EB530C0F894E0916704F091680463
:10298000808190916904892B8083E0916404F091A7
:10299000650460916604A0916A04B0916B04809113
:1029A0006C04482F50E0762F709520E030E0808155
:1029B000862B8083220F8C9190E084239523892B92
:1029C00009F02160808187238083000000003F5F41
:1029D000383069F77894822F08950F931F93CF931F
:1029E000DF938B010E94B42EEB010E94B1148F3F44
:1029F00011F481E008C00E94B42E6C1B7D0B60179F
:102A0000710798F380E0DF91CF911F910F910895A6
:102A1000FC01673020F086E1858380E00895633013
:102A2000B9F0643028F4613069F0623070F407C0A6
:102A30006530A1F0653078F06630A9F412C084E00A
:102A400090E011C080E090E00EC085E090E00BC007
:102A500081E090E008C086E090E005C082E090E070
:102A600002C083E090E00E94620D81E00895FC01C5
:102A7000848160E00E94952F0895FC01848161E0CB
:102A80000E94952F0895CF92DF92EF92FF920F93BD
:102A90001F93CF93DF937C016A01FC018485882317
:102AA00019F40FEF1FEF30C000E010E040E050E0FD
:102AB000212F332727FD3A95F601E40FF51F80817A
:102AC00090E0282739273070C901F4E09595879563
:102AD000FA95E1F782279327102F00270827192757
:102AE0009C01322F22273295307F0227132725E0C1
:102AF000880F991F2A95E1F7082719274F5F5F4F25
:102B0000F2E040305F07A1F6862F0E947814C0E003
:102B1000D0E0F601EC0FFD1F80810E947814219611
:102B200082E0C030D807A9F7812F992787FD9A95B1
:102B30000E947814802F0E9478140E94B114F7012B
:102B400082878F71853011F481E007C081E1F70140
:102B50008583C7010E943D1580E0DF91CF911F91D1
:102B60000F91FF90EF90DF90CF9008950F931F93F8
:102B7000CF93DF93EC010E94B42E8B0109C00E9419
:102B8000B42E601B710B6D52714010F08FE00AC0C3
:102B90000E94B1148A878F3F91F38E3F11F481E038
:102BA00006C08DE08D83CE010E943D1580E0DF914F
:102BB000CF911F910F910895CF93DF93EC018E81F8
:102BC000882319F40FC00E94B1148F819885019653
:102BD00098878F83019782509240A8F3CE010E947C
:102BE0003D151E82DF91CF910895DF92EF92FF9203
:102BF0000F931F93CF93DF93EC01D62E79018A01B7
:102C00000E94DC15CE010E943715CE016CE271E006
:102C10000E94ED148D2D80640E947814812F9927D5
:102C2000AA27BB270E947814C801AA27BB270E94A5
:102C30007814BB27A12F902F8F2D0E9478148E2DF2
:102C40000E947814DD2011F485E906C088E0D816CA
:102C500011F487E801C08FEF0E94781410E00E9401
:102C6000B1148A8787FF02C01150C9F7DF91CF9155
:102C70001F910F91FF90EF90DF900895CF92DF9218
:102C8000EF92FF920F931F93CF93DF93EC017A01A2
:102C90008B016901411551056105710511F482E14E
:102CA00033C08B85833039F039E0EE0CFF1C001FF8
:102CB000111F3A95D1F7CE0168E1A80197010E9452
:102CC000F515882311F084E01FC0CE016EEFA60138
:102CD0000E9443158823C9F0CE0168E572E00E9486
:102CE000ED14882311F485E10FC0CE016DE020E0E2
:102CF00030E040E050E00E94F515882321F40E9466
:102D0000B114882379F084E18D83CE010E943D15B2
:102D100080E0DF91CF911F910F91FF90EF90DF90B6
:102D2000CF900895CE010E943D1581E0F2CF6F92C1
:102D30007F928F929F92AF92BF92CF92DF92EF924B
:102D4000FF920F931F93CF93DF93EC015A016B0116
:102D5000390148010115110509F46AC0C801820F43
:102D6000931F8150924008F05EC08E81882371F0DD
:102D700088819981AA81BB81481759076A077B0717
:102D800029F48F8198856816790650F5A882B98252
:102D9000CA82DB828B85833039F0E9E0AA0CBB1C48
:102DA000CC1CDD1CEA95D1F7CE0161E1A6019501AD
:102DB0000E94F515882319F083E08D8334C0CE017D
:102DC0000E94B615882379F118861F8281E08E83D0
:102DD00007C00E94B1148F819885019698878F83D0
:102DE0008F81988586159705A0F300E010E008C054
:102DF0000E94B114F701E00FF11F80830F5F1F4F96
:102E000008151905A8F32F813885280D391D388735
:102E10002F838985882319F02050324048F0CE0155
:102E20000E94DC1505C0CE010E943D1580E001C066
:102E300081E0DF91CF911F910F91FF90EF90DF9094
:102E4000CF90BF90AF909F908F907F906F9008959C
:102E5000EF92FF920F931F93790120E030E000E0A2
:102E600012E00E9497161F910F91FF90EF90089526
:102E7000BF92CF92DF92EF92FF920F931F93CF9367
:102E8000DF93EC01B62E1E2D1B8619861E821D8235
:102E90001C864C8320936D0400936E04E0926304BF
:102EA0000E94B42E6B018C8161E00E94562FCE01EE
:102EB0000E943D151F3F09F462C080916E0460E0DE
:102EC0000E94562F80916D0461E00E94562F8091E0
:102ED000630461E00E94562FE09163042E2F332794
:102EE00027FD3095F901E85DFD4FE491F0E0EE0F2C
:102EF000FF1FEC5EFD4F8591949190936504809344
:102F00006404245C3D4FF901849180936604E09150
:102F10006D042E2F332727FD3095F901E85DFD4F15
:102F2000E491F0E0EE0FFF1FEC5EFD4F8591949170
:102F30009093680480936704245C3D4FF901849169
:102F400080936904E0916E042E2F332727FD30957E
:102F5000F901E85DFD4FE491F0E0EE0FFF1FE25E46
:102F6000FD4F8591949190936B0480936A04245C47
:102F70003D4FF901849180936C0410E006C00E94DB
:102F8000730D83E00E94620DF8CF8FEF0E947814DA
:102F90001F5F1A30D1F7CE010E94371509C00E9479
:102FA000B42E6C197D09615D774010F081E05AC044
:102FB000CE0160E020E030E040E050E00E94F515F6
:102FC000182F8A87813059F7CE0168E02AEA31E06C
:102FD00040E050E00E94F51582FF02C01B870DC043
:102FE00010E00E94B1148A871F5F1430D1F78A3A2B
:102FF00011F082E037C082E08B878B85823021F030
:10300000EE24FF2487010FC0E12CF12C012DF0E408
:103010001F2F09C00E94B42E6C197D09615D774095
:1030200010F088E01FC0CE0167E320E030E040E010
:1030300050E00E94F515CE0169E2A80197010E94B7
:10304000F5158A87882331F78B858230F1F4CE011C
:103050006AE320E030E040E050E00E94F51588236C
:1030600039F086E08D83CE010E943D1580E01AC0C4
:103070000E94B114807C803C11F483E08B870E9415
:10308000B1140E94B1140E94B114CE010E943D15EA
:10309000809163048F3F11F081E004C0CE016B2D5D
:1030A0000E940815DF91CF911F910F91FF90EF9033
:1030B000DF90CF90BF900895CF93DF93EC01DB01B9
:1030C00080E090E020E2FD01E80FF91F20830196E7
:1030D0008B309105C1F757E040E021C02E3219F046
:1030E0008CEE91E007C05A3019F15AE048E017C061
:1030F0003217F1F0FC01019634913323C9F75417CC
:10310000B8F02132A8F02F3798F4822F81568A31F7
:1031100008F42052FD01E40FF11D20834F5F299137
:103120002223E1F690E08C91803219F091E001C009
:1031300090E0892FDF91CF9108956F927F928F92C7
:103140009F92AF92BF92CF92DF92EF92FF920F9336
:103150001F93CF93DF93EC017A018B012D81222302
:1031600009F480C08B899C89AD89BE898417950735
:10317000A607B70708F476C085C0E114F10401057D
:10318000110549F41E821F82188619861A861B862D
:103190001C861D8665C02A853B854C855D85EB8D2B
:1031A000FC8D858590E0099621503040404050408C
:1031B00039014A01082E04C0969487947794679445
:1031C0000A94D2F72F5F3F4F4F4F5F4F0894E108AB
:1031D000F108010911095701680104C0D694C79488
:1031E000B794A7948A95D2F70894E11CF11C011DAD
:1031F000111DA614B704C804D90428F021153105FF
:103200004105510549F48F89988DA98DBA8D8E831A
:103210009F83A887B98716C0A618B708C808D90819
:1032200011C04E815F81688579858B8D9C8D94015D
:103230000E9478220894A108B108C108D108882307
:1032400031F410C086E0882E912C8C0E9D1EA114A6
:10325000B104C104D10429F7EA86FB860C871D87D7
:1032600081E001C080E0DF91CF911F910F91FF902D
:10327000EF90DF90CF90BF90AF909F908F907F9016
:103280006F900895223009F078CFE6CFCF93DF9387
:10329000EC01462F6E857F85888999890E945C2084
:1032A000882319F420E030E00AC08A89282F30E012
:1032B00095E0220F331F9A95E1F72F583B4FC90134
:1032C000DF91CF9108950F931F93CF93DF938C01DC
:1032D000FC0185818823D9F1848187FF35C0C8012D
:1032E00061E00E944619EC01009789F1F80185819F
:1032F000823040F483899489A589B6898C8F9D8F0B
:10330000AE8FBF8FF8018789908D9B8F8A8F8789B9
:10331000908DA18DB28DCD01AA27BB279D8B8C8B63
:10332000E0916F04F0917004309751F0BE016A5E35
:103330007F4FCE0148960995888D998D9B8B8A8BFE
:10334000F80184818F7784830E94FD1F01C080E093
:10335000DF91CF911F910F910895CF93DF93EC01EF
:103360000E946319882311F01D8281E0DF91CF91C3
:1033700008956F927F928F929F92AF92BF92CF9259
:10338000DF92EF92FF920F931F93DF93CF9300D0C2
:1033900000D0CDB7DEB77C015A016B01DC01159678
:1033A0008C911597813009F08FC014968C9181FF14
:1033B0008BC09EC00097A105B10511F481E085C0C6
:1033C000F7016284738484849584C701B601A501E2
:1033D0000E949D18882309F477C0D7015B968D91D0
:1033E0009C915C97A114B104C104D10489F457964F
:1033F0004D915D916D917C915A970E94EB228823AB
:1034000009F462C0F701178A108E118E128E3DC02A
:10341000D70116964D915D916D917C9119979E0102
:103420002F5F3F4F0E947822882309F44DC0D701B7
:103430005B96ED91FC915C9749815A816B817C810F
:103440008789803129F088EF9FEFAFEFBFE004C09C
:1034500088EF9FEFA0E0B0E0481759076A077B07A5
:10346000A0F4CF010E94EB22882371F1F70146817D
:10347000578160857185838D948D0FEF1FEF2FEF3E
:103480003FE00E94DC218823F9F0D7015396AD92EA
:10349000BD92CD92DC92569714968C9114978068C9
:1034A00014968C93C7010E946319882369F0B601B2
:1034B000A5016A147B048C049D0410F4B401A301DB
:1034C000C7010E949D1801C080E00F900F900F90DF
:1034D0000F90CF91DF911F910F91FF90EF90DF90B0
:1034E000CF90BF90AF909F908F907F906F900895F6
:1034F000F70183899489A589B68984179507A6075A
:10350000B70708F057CFE0CF2F923F924F925F92CC
:103510006F927F928F929F92AF92BF92CF92DF92E3
:10352000EF92FF920F931F93CF93DF93EC012A0149
:103530008D81882309F4C6C08C8180FFC3C0D8C0A8
:1035400025014E185F084B0176E0272E312C2C0EFA
:103550003D1E3201B1C02A853B854C855D856FEFEC
:10356000A62E61E0B62EA222B3228D8179018A01B6
:1035700099E016950795F794E7949A95D1F7EB8D16
:10358000FC8D823049F4428D538D648D758D4E0DC6
:103590005F1D601F711F3FC0D480DA94DE20A1142C
:1035A000B104D9F4DD20C9F42115310541055105D7
:1035B00049F48F89988DA98DBA8D8E839F83A887B2
:1035C000B9870BC04E815F8168857985CF019101F4
:1035D0000E947822882309F475C0EB8DFC8D4E8102
:1035E0005F81688579854250504060407040058415
:1035F00004C0440F551F661F771F0A94D2F78685B3
:103600009785A089B189480F591F6A1F7B1F4D0DEF
:10361000511D611D711D80E092E08A199B096301B3
:103620008615970508F46C018C8186FD06C080E044
:10363000C81682E0D80609F073C080911F019091EE
:103640002001A0912101B0912201481759076A0772
:103650007B0709F465C0809171069091720695010F
:10366000860174010E949716882361F18C0C9D1CC1
:1036700012C095012F583B4FA9014C0D5D1DD4017F
:10368000F90102C081918D93E417F507D9F7E21B88
:10369000F30B8E0E9F1E960140E050E08A859B85BD
:1036A000AC85BD85820F931FA41FB51F8A879B879A
:1036B000AC87BD876C187D086114710409F04BCF8D
:1036C000A20102C04FEF5FEFCA01DF91CF911F91BE
:1036D0000F91FF90EF90DF90CF90BF90AF909F90B1
:1036E0008F907F906F905F904F903F902F900895B4
:1036F000AB88BC88CD88DE88EA84FB840C851D8578
:103700009A0140E050E0D601C5018E199F09A00B37
:10371000B10B82179307A407B50708F411CF13CF95
:10372000CB01BA0140E00E945C20882309F0A1CFC0
:10373000C9CFCF92DF92EF92FF920F931F93DF9347
:10374000CF930F92CDB7DEB76C01FC01858182303B
:1037500070F0E284F38404851585C601BE016F5FB5
:103760007F4F41E050E00E94841A019769F020E009
:1037700030E0C9010F90CF91DF911F910F91FF9021
:10378000EF90DF90CF900895F60182859385A48510
:10379000B5854F96A11DB11D82879387A487B587F4
:1037A000F5E016950795F794E794FA95D1F78E2DE5
:1037B0008F70282F30E0E5E0220F331FEA95E1F704
:1037C0002F583B4FD6CF0F931F93CF93DF93EC012E
:1037D0008B018D81882309F041C0FB0187898031ED
:1037E000B1F482E08D831F8A188E198E1A8E808D17
:1037F000918DA0E0B0E045E0880F991FAA1FBB1F84
:103800004A95D1F78B8B9C8BAD8BBE8B15C08032CC
:1038100029F583E08D83FB01428D538D648D758D79
:103820004F8B588F698F7A8F9E012D5E3F4FC80155
:103830000E944423882391F01C8F0B8F81E08C839E
:103840001E821F82188619861A861B861C861D8674
:103850001E861F86188A198A1A8A01C080E0DF91A5
:10386000CF911F910F9108951F93CF93DF93EC0198
:10387000142FE62FF0E075E0EE0FFF1F7A95E1F7C9
:10388000EF58FB4F8385817121F0842F827409F0FA
:1038900054C06A8B80911F0190912001A091210159
:1038A000B09122018E879F87A88BB98B84899589D7
:1038B000A0E0B0E0BC0155274427828D938DA0E0A5
:1038C000B0E0482B592B6A2B7B2B4F8B588F698F7D
:1038D0007A8F838590E088719070009751F4848D81
:1038E000958DA68DB78D8B8B9C8BAD8BBE8B81E020
:1038F0000CC0409711F59E012D5E3F4F8B8D9C8D26
:103900000E9444238823C9F084E08D83812F8F7027
:103910008C831E821F82188619861A861B861C8637
:103920001D8616FD02C081E009C0CE0140E050E0D6
:1039300060E070E00E94B91901C080E0DF91CF9192
:103940001F910895CF93DF93EC019C012A5F3F4FB5
:103950008B8D9C8D41E050E060E070E00E94B323CD
:103960008823A1F08F89988DA98DBA8D0097A10524
:10397000B10559F48E819F81A885B9858F8B988F69
:10398000A98FBA8F8C8180688C8381E0DF91CF9181
:1039900008952F923F924F925F927F928F929F92C3
:1039A000AF92BF92CF92DF92EF92FF920F931F934D
:1039B000DF93CF9300D000D000D0CDB7DEB76C013D
:1039C000162F072F5E834D83DC0115968C9115977A
:1039D000813009F070C114968C9181FF6CC18EC149
:1039E000F601438954896589768982859385A48502
:1039F000B58584179507A607B70731F0C6010E9461
:103A00009D18882309F457C1812F902F9C0129010B
:103A10002D803E8017C1D6015B96ED91FC915C979D
:103A2000DA01C90119E0B695A795979587951A957A
:103A3000D1F774807A9478227FEF872E71E0972EE9
:103A400082229322772009F04EC08114910409F05C
:103A50004AC0D60116964D915D916D917C91199752
:103A6000411551056105710581F457968D919D9120
:103A70000D90BC91A02D0097A105B10549F1F6016B
:103A800086839783A087B1872EC0CF019E012F5FC9
:103A90003F4F0E947822882309F414C129813A817A
:103AA0004B815C81D6015B96ED91FC915C97878997
:103AB000803129F088EF9FEFAFEFBFE004C088EFBF
:103AC0009FEFA0E0B0E0281739074A075B0730F006
:103AD000C6010E94A21C882331F4EDC0F6012683A2
:103AE00037834087518780E092E088199909510116
:103AF0008215930508F45C01D6015B96ED91FC916B
:103B00005C971696ED90FD900D911C9119978EEF94
:103B10009FEFAFEFBFEFE80EF91E0A1F1B1F0584D2
:103B200004C0EE0CFF1C001F111F0A94D2F78685FB
:103B30009785A089B189E80EF91E0A1F1B1FE70CA3
:103B4000F11C011D111D90E0A91692E0B90651F576
:103B500080911F0190912001A0912101B09122013B
:103B60008E159F05A007B10761F48FEF9FEFAFEFB0
:103B7000BFEF80931F0190932001A0932101B09388
:103B800022018091710690917206B801A7019201FD
:103B90000E943E16882309F48EC0A0E0B2E04A0ECF
:103BA0005B1E3EC08114910409F5F6012285338520
:103BB0004485558583899489A589B689281739074D
:103BC0004A075B0798F00E94FD1F882309F473C021
:103BD000E0921F01F0922001009321011093220135
:103BE0008091730681608093730608C0C801B70195
:103BF00041E00E945C20882309F45DC094012F58A5
:103C00003B4FA9014A0D5B1DD201F90102C08D9104
:103C10008193E417F507D9F7E21BF30B4E0E5F1EF5
:103C20002A183B08950140E050E0F6018285938513
:103C3000A485B585820F931FA41FB51F8287938724
:103C4000A487B587D6011A962D913D914D915C912F
:103C50001D972114310409F0DECE53968D919D916C
:103C60000D90BC91A02D82179307A407B50748F4C7
:103C7000F601238B348B458B568B8481806884833B
:103C800011C080916F0490917004892B59F08D813F
:103C90009E81892B39F0D60114968C9114978068F7
:103CA00014968C93F601848183FF0EC0C6010E9496
:103CB0006319882349F481E090E0D60113969C9320
:103CC0008E9312971E821D828D819E8126960FB63D
:103CD000F894DEBF0FBECDBFCF91DF911F910F9142
:103CE000FF90EF90DF90CF90BF90AF909F908F901C
:103CF0007F905F904F903F902F90089582FD70CEFF
:103D000083CEDF93CF930F92CDB7DEB76983BE0129
:103D10006F5F7F4F41E050E00E94C91C0F90CF9130
:103D2000DF910895DF92EF92FF920F931F93CF934D
:103D3000DF93EC010E94A21C882309F44EC0EB8D96
:103D4000FC8DEE80FF80088519858EEF9FEFAFEF29
:103D5000BFEFE80EF91E0A1F1B1F058404C0EE0CFE
:103D6000FF1C001F111F0A94D2F786859785A08932
:103D7000B189E80EF91E0A1F1B1FD4800894E108C0
:103D8000F108010911090BC0C801B7016D0D711DC2
:103D9000811D911D0E9438208823F9F0DA94DD20DE
:103DA00099F7EB8DFC8D20E032E040E050E0058497
:103DB00004C0220F331F441F551F0A94D2F78B896A
:103DC0009C89AD89BE89820F931FA41FB51F8B8B61
:103DD0009C8BAD8BBE8B81E001C080E0DF91CF91E9
:103DE0001F910F91FF90EF90DF9008956F927F9257
:103DF0008F929F92AF92BF92CF92DF92EF92FF92FB
:103E00000F931F93DF93CF93CDB7DEB72B970FB6EA
:103E1000F894DEBF0FBECDBF5C016B01822EDC01CA
:103E200015968C91882309F0D2C0CA018E010F5FCC
:103E30001F4FB8010E945C18882309F4C8C0F6011E
:103E4000838D948DD5015C969C938E935B9716829F
:103E5000178210861186D6011A961D921D921D9208
:103E60001C921D979924380141C0C6010E94991BDC
:103E7000FC01009709F4ABC085E016950795F7940F
:103E8000E7948A95D1F71E2D1F708081882311F049
:103E9000853ED1F4992091F4D50152961C93529706
:103EA00020911F0130912001409121015091220168
:103EB0001E962D933D934D935C935197808188235B
:103EC00099F49924939421C0C301BF014BE050E0C1
:103ED0000E94EA01009751F4882D8073803309F421
:103EE00076C0C501612F6FC099249394F601E284D6
:103EF000F3840485158583899489A589B689E81694
:103F0000F9060A071B0708F4B0CF882D82718231A9
:103F100009F05DC0992041F0C50161E00E94461999
:103F20008C01009789F453C0D60115968C9182308C
:103F300009F44DC0C6010E94921E882309F447C0AF
:103F4000F501128A01E714E080E2D8011D928A95FA
:103F5000E9F7D801FE0131968BE001900D92815076
:103F6000E1F7E0916F04F0917004309739F0B801F7
:103F7000625F7F4FC8014096099509C081E298E2CF
:103F8000F801918B808B80E098E097878687D80135
:103F900050968D919C91519753969C938E935297E6
:103FA00059969C938E9358971E968D919C911F972E
:103FB00057969C938E9356970E94FD1F882339F045
:103FC000C501F5016289482D0E94341C01C080E0C2
:103FD0002B960FB6F894DEBF0FBECDBFCF91DF9109
:103FE0001F910F91FF90EF90DF90CF90BF90AF9017
:103FF0009F908F907F906F90089580917306882393
:1040000099F140911F01509120016091210170911F
:104010002201809171069091720621E734E00E949E
:104020003E16882319F140917406509175066091EF
:10403000760670917706411551056105710591F07D
:10404000809171069091720621E734E00E943E163D
:10405000882361F01092740610927506109276060D
:10406000109277061092730681E0089580E008951B
:10407000EF92FF920F931F937B018C010E94FD1F13
:104080008823A9F0E1E7F4E0119286E0E137F80730
:10409000D9F7E0921F01F0922001009321011093C3
:1040A00022018091730681608093730681E01F91E5
:1040B0000F91FF90EF900895DF92EF92FF920F9390
:1040C0001F937B018C01D42E80911F0190912001C0
:1040D000A0912101B09122018E159F05A007B10783
:1040E000C1F00E94FD1F8823D9F080917106909144
:1040F0007206B801A70121E734E00E94281788233F
:1041000079F0E0921F01F0922001009321011093B9
:104110002201809173068D298093730681E001C08E
:1041200080E01F910F91FF90EF90DF9008958F92A4
:104130009F92AF92BF92CF92DF92EF92FF920F9336
:104140001F93CF93DF936C01142F709372066093CB
:104150007106442321F488249924540140C0453039
:1041600008F01CC160E070E080E090E040E00E9458
:104170005C20882309F412C1C12FD0E02197FE01F1
:1041800074E0EE0FFF1F7A95E1F7EF58FB4FE25412
:10419000FE4F8081EE5BF14090E08F779070892B2D
:1041A00009F0FCC0E653FE4F80819181A281B3816A
:1041B00084369105A105B10508F4F0C064E0CC0F88
:1041C000DD1F6A95E1F7C95CD94F88809980AA8084
:1041D000BB8081149104A104B10409F4DFC0C501BE
:1041E000B40140E00E945C20882309F4D7C080918C
:1041F0007C0490917D048050924009F0CFC02091C2
:104200008104222309F4CAC080917F049091800424
:10421000892B09F4C3C080917E04882309F4BEC0B1
:10422000F601228B80917E048483158661E070E024
:1042300007C04F5FF60145874150483008F0AEC0D7
:10424000F6014585848190E09B01042E02C0220F77
:10425000331F0A94E2F78217930759F720918704D6
:10426000309188042115310519F040E050E008C074
:1042700020919504309196044091970450919804B0
:10428000F6012583368347835087E0907F04F090C2
:10429000800400E010E0E80CF91C0A1D1B1DE38AF5
:1042A000F48A058B168B8091820490918304918F00
:1042B000808F6091810470E080E090E00E946F3414
:1042C0006E0D7F1D801F911FF601628F738F848F8B
:1042D000958F209182043091830455E0220F331F83
:1042E0005A95E1F721503E4F232F3327269540E082
:1042F00050E0260F371F481F591F26873787408BEE
:10430000518B8091840490918504009719F0A0E06E
:10431000B0E008C08091910490919204A091930420
:10432000B091940485017401E21AF30A040B150B91
:10433000A8019701280F391F4A1F5B1FF60105844A
:1043400004C056954795379527950A94D2F721874B
:10435000328743875487253FFFE03F07F0E04F0750
:10436000F0E05F0710F48CE006C0255F3F4F40404F
:10437000504028F480E1F601878B81E010C08091E5
:104380009D0490919E04A0919F04B091A004F60119
:10439000828F938FA48FB58F80E2EECF80E0DF9184
:1043A000CF911F910F91FF90EF90DF90CF90BF9032
:1043B000AF909F908F9008954F925F926F927F92EF
:1043C0008F929F92AF92BF92CF92DF92EF92FF9225
:1043D0000F931F93CF93DF93EC016A017B012801B8
:1043E0003901423051056105710508F46FC08985B6
:1043F0009A85AB85BC850196A11DB11D84179507D3
:10440000A607B70708F462C02B893C894D895E89ED
:104410008F89803129F499278F2D7E2D6D2D09C02C
:10442000C701B60117E096958795779567951A9518
:10443000D1F74B015C01820E931EA41EB51E809124
:104440001F0190912001A0912101B09122018816B5
:104450009906AA06BB0639F0C501B40140E00E94E6
:104460005C20882399F18F89803149F4F601F0703E
:10447000EE0FFF1FEF58FB4F518240820DC0F60137
:10448000EF77F070EE0FFF1FEE0FFF1FEF58FB4F9F
:104490004082518262827382809173068160809330
:1044A00073068A89823080F08D819E81AF81B885C4
:1044B000880E991EAA1EBB1E8092740690927506E5
:1044C000A0927606B092770681E001C080E0DF918D
:1044D000CF911F910F91FF90EF90DF90CF90BF9001
:1044E000AF909F908F907F906F905F904F900895C6
:1044F000CF92DF92EF92FF920F931F93CF93DF93B0
:10450000EC017A018B01690189859A85AB85BC85AF
:104510000196A11DB11D84179507A607B70708F4DA
:1045200050C02B893C894D895E898F89803129F45F
:104530009927812F702F6F2D09C0C801B701E7E0BF
:104540009695879577956795EA95D1F7260F371F4A
:10455000481F591F80911F0190912001A0912101B6
:10456000B0912201281739074A075B0739F0CA01C1
:10457000B90140E00E945C20882319F18F898031C5
:1045800059F4F701F070EE0FFF1FEF58FB4F8081D9
:104590009181A0E0B0E00EC0F701EF77F070EE0F70
:1045A000FF1FEE0FFF1FEF58FB4F80819181A2810B
:1045B000B381BF70F60180839183A283B38381E0CE
:1045C00001C080E0DF91CF911F910F91FF90EF909C
:1045D000DF90CF900895AF92BF92CF92DF92EF928B
:1045E000FF920F931F93DF93CF9300D000D0CDB7EE
:1045F000DEB76C017A018B0182E090E0A0E0B0E0D0
:10460000F60180839183A283B3835E010894A11C89
:10461000B11CC601B801A70195010E947822882328
:1046200019F1C601B801A70100E010E020E030E078
:104630000E94DC218823C1F0E980FA800B811C8173
:10464000F6018789803129F088EF9FEFAFEFBFE057
:1046500004C088EF9FEFA0E0B0E0E816F9060A0773
:104660001B07B8F281E001C080E00F900F900F901F
:104670000F90CF91DF911F910F91FF90EF90DF90FE
:10468000CF90BF90AF9008954F925F926F927F92BC
:104690008F929F92AF92BF92CF92DF92EF92FF9252
:1046A0000F931F93DF93CF9300D000D0CDB7DEB729
:1046B0006C0149835A836B837C833901EE24FF2488
:1046C00087012E010894411C511C812CA2E09A2ED6
:1046D000A12CB12C49815A816B817C81C601920148
:1046E0000E947822882351F1D501C401F601058486
:1046F00004C0880F991FAA1FBB1F0A94D2F7E80EA7
:10470000F91E0A1F1B1F29813A814B815C81878911
:10471000803129F088EF9FEFAFEFBFE004C088EF52
:104720009FEFA0E0B0E0281739074A075B0790F237
:10473000F301E082F1820283138381E00F900F90F6
:104740000F900F90CF91DF911F910F91FF90EF90FD
:10475000DF90CF90BF90AF909F908F907F906F90A1
:104760005F904F9008952F923F924F925F926F9279
:104770007F928F929F92AF92BF92CF92DF92EF92F1
:10478000FF920F931F93DF93CF93CDB7DEB72F9791
:104790000FB6F894DEBF0FBECDBF1C014A875B8702
:1047A0006C877D873F872E87D9010D911D912D91B3
:1047B0003C91011511052105310549F048015901C8
:1047C0000894811C911CA11CB11C198610C0FC010D
:1047D00080809180A280B38019868A859B85AC8574
:1047E000BD850197A105B10511F491E09987D1012B
:1047F00019968D919D910D90BC91A02D0196A11DB2
:10480000B11D8D839E83AF83B887750164014424F5
:10481000552432018E010F5F1F4FF1018185928572
:10482000A385B485481659066A067B0608F090C031
:104830008D819E81AF81B8858C159D05AE05BF0524
:1048400050F482E0882E912CA12CB12CB2E0CB2E1A
:10485000D12CE12CF12CC101B701A60198010E94D5
:104860007822882309F474C089819A81AB81BC8144
:10487000A70196012F5F3F4F4F4F5F4F0097A10554
:10488000B10519F049015A010DC0281939094A0921
:104890005B098A859B85AC85BD85281739074A0742
:1048A0005B0759F00894411C511C611C711C089451
:1048B000C11CD11CE11CF11CB0CFC101A601B70184
:1048C0000FEF1FEF2FEF3FE00E94DC21882399F4C8
:1048D0003FC026013701089441085108610871085A
:1048E000C101B301A201970186010E94DC21882346
:1048F00079F1730162018C149D04AE04BF0448F386
:10490000AE85BF854D915D916D917C9141155105AD
:104910006105710539F0C101950184010E94DC2116
:104920008823B1F0EE85FF8580829182A282B382D6
:10493000F985FF2359F00894811C911CA11CB11C1E
:10494000D1018D929D92AD92BC92139781E001C0EE
:1049500080E02F960FB6F894DEBF0FBECDBFCF918B
:10496000DF911F910F91FF90EF90DF90CF90BF905C
:10497000AF909F908F907F906F905F904F903F90FF
:104980002F9008956827462F4295407F462750E094
:10499000742F6627292F30E0622B732BCA01A3E006
:1049A000880F991FAA95E1F768277927F4E05695B3
:1049B0004795FA95E1F764277527CB010895FC0127
:1049C0007183608342830895FC01A081B181ED91E0
:1049D000FC9111970484F585E02DCD01099508958A
:1049E000FC01A081B181ED91FC9111970488F589BA
:1049F000E02DCD0109950895DF92EF92FF920F937C
:104A00001F938C017B01D42E622F0E94F024F801A9
:104A1000A081B181ED91FC9111970680F781E02D85
:104A2000CD01B7014D2D09951F910F91FF90EF908A
:104A3000DF900895FC01A081B181ED91FC91119767
:104A40000688F789E02DCD0109950895FF920F930F
:104A50001F938C01F62EFC01A081B181ED91FC9198
:104A600011970288F389E02DCD010995C8016F2DBA
:104A70000E941A25F801F2821F910F91FF9008956C
:104A80001F93CF93DF93EC01E881F981A081B1817D
:104A90002D913C91CF01F9010995182F882321F020
:104AA000CE016A810E942625812FDF91CF911F912F
:104AB0000895FC01A081B181ED91FC911197068CC4
:104AC000F78DE02DCD0109950895FC01A081B181FC
:104AD000ED91FC91119700A0F1A1E02DCD01099578
:104AE0000895FC01A081B181ED91FC91119702A084
:104AF000F3A1E02DCD0109950895FC01A081B181BC
:104B0000ED91FC91119704A0F5A1E02DCD0109953F
:104B10000895AF92BF92CF92DF92EF92FF920F93E0
:104B20001F93CF93DF93EC015901A881B981ED91D7
:104B3000FC9111970480F581E02DCD010995882322
:104B400009F1A114B10429F0CE010E946525F501F7
:104B500080830115110529F0CE010E945925F80125
:104B60008083E114F10429F0CE010E947125F70140
:104B70008083C114D10429F0CE010E947D25F60165
:104B8000808381E0DF91CF911F910F91FF90EF9093
:104B9000DF90CF90BF90AF900895FC0185E591E044
:104BA00091838083138212828FEF8483828783872D
:104BB00014861586108A1786128A118A148A138A17
:104BC000089581E00895CF93DF93EC01E881F981A6
:104BD0000280F381E02DCE0109958823B9F3DF919E
:104BE000CF910895FC01828193810297E1F381E0E6
:104BF0000895FC0165830895FC0164830895FC0118
:104C000062870895FC0163870895FC016487089515
:104C1000FC01409585854823462B45870895FC0176
:104C200086810895FC0187810895FC01808508959F
:104C3000FC0181850895AF92BF92CF92DF92EF92EF
:104C4000FF920F931F93CF93DF93EC018B010E9490
:104C5000B42E5B016C01780100E010E006C08A818F
:104C60009B81029711F081E00CC00E94B42E6A195A
:104C70007B098C099D096E157F058007910778F3E4
:104C800080E0DF91CF911F910F91FF90EF90DF9027
:104C9000CF90BF90AF900895AF92BF92CF92DF9226
:104CA000EF92FF920F931F93CF93DF93EC018B0151
:104CB0000E94B42E5B016C01780100E010E00BC093
:104CC000E881F9810280F381E02DCE0109958823E6
:104CD00011F081E00CC00E94B42E6A197B098C0986
:104CE0009D096E157F058007910750F380E0DF91E5
:104CF000CF911F910F91FF90EF90DF90CF90BF90D9
:104D0000AF90089508950895FC018FE791E0918395
:104D10008083738362835583448337832683089516
:104D2000FC01758364830895FC017783668308958D
:104D3000FC017383628308956EBD0DB407FEFDCF41
:104D40008EB508958CB580688CBD08958CB58F772D
:104D50008CBD08950E94500D0895CF93DF93EC0110
:104D60008E819F81009771F08130910511F484E06C
:104D70000AC08230910511F488E005C0039711F450
:104D80008CE001C080E00E945D0D20E08C819D815F
:104D9000019709F021E0822F0E94540D8A819B81A6
:104DA0008230910569F0833091051CF4019731F44C
:104DB00003C005971CF406C085E005C081E003C070
:104DC00080E001C084E00E94620D0E94730DDF91BB
:104DD000CF9108950F931F938C010E94842683E93D
:104DE00091E0F801918380831F910F91089588E7E6
:104DF00096E060E070E040E050E020E030E00E94AB
:104E0000EA2608958CE30895EF92FF921F93CF93C3
:104E1000DF93EC012FEF3FEF10E089E6E82EF12C55
:104E2000EC0EFD1E09C0FE01E10FF11DC90165A1D7
:104E30000E94C2249C011F5FF7018081181798F31C
:104E4000285B304F39F08F8598890196988B8F8732
:104E50001D8E19C08EA18E838FA18F8388A5888710
:104E600089A589878D81882339F49E818C81981743
:104E700019F08E818F3F39F489899A8901969A8B2E
:104E8000898B81E08D8FDF91CF911F91FF90EF9003
:104E90000895FC01862F638D6827818D0E94952FD0
:104EA0000895CF93DF93EC018A819B81029779F07B
:104EB000C659DF4F199219921882CC56D040CE01B4
:104EC00061E00E94492782E090E09B838A83DF9122
:104ED000CF9108959F92AF92BF92CF92DF92EF92BF
:104EE000FF920F931F93CF93DF93EC01A62E972E83
:104EF000B42E8CE3841710F480E001C135E7E32E73
:104F0000F12CEC0EFD1E042F095FE881F981048469
:104F1000F585E02DCE0109958FEF9FEF602F0E9460
:104F2000C22410E0F80124E0F595E7952A95E1F711
:104F3000E353FE4F2081F70120830F70107003535D
:104F40001E4FF8012081F70121836A850E94C22447
:104F5000EA85F0E0B4E0F595E795BA95E1F7E3531B
:104F6000FE4F2081F7012283EA85F0E0EF70F070B8
:104F7000E353FE4F2081F70123836B850E94C224F7
:104F8000EB85F0E0A4E0F595E795AA95E1F7E3530A
:104F9000FE4F2081F7012483EB85F0E0EF70F07085
:104FA000E353FE4F2081F70125836C850E94C224C4
:104FB000EC85F0E074E0F595E7957A95E1F7E35339
:104FC000FE4F2081F7012683EC85F0E0EF70F07052
:104FD000E353FE4F2081F70127836D850E94C22491
:104FE000DC01ED85F0E064E0F595E7956A95E1F781
:104FF000E353FE4F8081F7018087ED85F0E0EF708D
:10500000F070E353FE4F8081F701818767012A2DFD
:10501000392DC9018C0120C0CD01F80160810E94A9
:10502000C224DC01F8018081E82FF0E054E0F5951E
:10503000E7955A95E1F7E353FE4F8081F6018087AB
:10504000F80181918F01E82FF0E0EF70F070E353E9
:10505000FE4F8081F601818782E090E0C80ED91E64
:10506000802F8A198B15C0F28B2D90E00596880F42
:10507000991FA095B095A701480F591FFD0134E075
:10508000F695E7953A95E1F7EF70F070E353FE4F30
:105090002081FA0120830196A701480F591FFD01C5
:1050A000EF70F070E353FE4F2081FA0120830196E8
:1050B000A701480F591FFD01EF2FFF27E295EF7061
:1050C000E353FE4F2081FA0120830196E80EF91E7A
:1050D000AB2FBB27AF70B070A353BE4F2C91F7011D
:1050E0002083C550DF4F875F8883CB5FD040CE01E0
:1050F0000E945127D0938106C093800681E0DF9102
:10510000CF911F910F91FF90EF90DF90CF90BF90C4
:10511000AF909F900895CF93DF93EC018A819B819C
:10512000039761F0CE0160E00E944927888D60E01E
:105130000E94952F83E090E09B838A83DF91CF913B
:105140000895CF93DF93EC018A819B81029711F43C
:1051500080E00BC0CE010E948B288C8D882321F02B
:10516000CE010E9404271C8E8D8DDF91CF91089572
:10517000CF93DF93EC018A819B81019761F0CE018F
:1051800060E00E944927888D60E00E94952F81E0B1
:1051900090E09B838A83DF91CF910895EF92FF92F5
:1051A0000F931F93CF93DF93EC01FC01E459FF4F62
:1051B00080818F5F80838150D1F54AE6E42EF12C07
:1051C000EC0EFD1EF7019081C550DF4F8881CB5F4B
:1051D000D040981748F0CE010E94B8288B899C894E
:1051E00001969C8B8B8B23C08E0105591F4FF801B4
:1051F0008081FE01E90FF11DE359FF4F608170E0EE
:10520000082E02C0759567950A94E2F76170707078
:105210008F5FF8018083888D0E94952FF80180812F
:10522000863028F01082F70180818F5F8083FE0135
:10523000E459FF4F8081883008F01082DF91CF91D0
:105240001F910F91FF90EF900895CF93DF93EC01A2
:105250008F890E94E92F30E020E0892B09F021E0BE
:105260008A8D281331E0832FDF91CF910895CF935A
:10527000DF93EC010E942529982F882319F08F8D48
:105280008F5F8F8F8E8D981759F028A188A1803558
:1052900010F08DE101C08BE0820F88A39E8F03C0C8
:1052A00088A18C5E88A388A1803A08F48CC08AA16A
:1052B0009BA1969587959BA38AA38F8D853028F017
:1052C0008AA19BA198609BA38AA388A1805A88A3E6
:1052D0001F8E89A1882309F46BC08CA18F5F8CA3DA
:1052E0008CA18C3008F46FC08AA19BA1282F2F734A
:1052F000322F36953695387098E008C0E32FF0E0ED
:10530000E353FE4F8081281721F03F5F9150B0F7A3
:1053100030E08AA19BA156E0969587955A95E1F7D2
:10532000982F282F26952695287048E008C0E22F50
:10533000F0E0E353FE4F8081981721F02F5F41503A
:10534000B0F720E0932F9295907F922BC759DF4FB3
:105350008881C956D040882389F4FE01E859FF4F5F
:1053600090838081873018F08081843438F019A2CE
:105370008F8598890196988B8F8725C0DE01A75964
:10538000BF4F8C91FE01E80FF11D95A38F5F8C93A9
:105390009C91C859DF4F8881C856D040981730F08B
:1053A00019A281E08C8FCE010E94B8281CA20BC0EC
:1053B0008AA19BA188539B4031F481E089A31CA260
:1053C000C759DF4F1882DF91CF910895FC01828188
:1053D0009381039721F4CF010E9437290895828198
:1053E0009381029719F4CF010E94CE2808951F924D
:1053F0000F920FB60F9211242F933F934F935F9309
:105400006F937F938F939F93AF93BF93EF93FF938C
:1054100080918006909181060E94E629FF91EF918C
:10542000BF91AF919F918F917F916F915F914F91BC
:105430003F912F910F900FBE0F901F901895EF92F4
:10544000FF920F931F93CF93DF93EC017B018A01AF
:10545000E881F9810280F381E02D09958823E9F044
:10546000E114F104C1F001151105A9F0C759DF4F8E
:105470009881C956D0409750F8018081981708F458
:105480009083F80140819E01265D3F4FC701B9011D
:1054900050E00E94F7011D8E81E0DF91CF911F91B6
:1054A0000F91FF90EF9008952F923F925F926F922D
:1054B0007F928F929F92AF92BF92CF92DF92EF92A4
:1054C000FF920F931F93DF93CF9300D000D000D0B3
:1054D000CDB7DEB71A0139016115710521F4D90183
:1054E0001D921C925DC05B01CC24DD24A3E0AA0CBC
:1054F000BB1CCC1CDD1CAA95D1F7F1E08F2E912CA2
:10550000CA01A0E0B0E08B839C83AD83BE83582C9E
:10551000B401660F771F64507E4FCE01019642E0C2
:1055200050E00E94E10129813A8140E050E060E0D2
:1055300074E284EF90E00E949A34CA01B901A60196
:1055400095010E949A3479018A0192E0E916F104EA
:105550000105110548F08B819C81AD81BE81E81663
:10556000F9060A071B0740F053940894811C911C0C
:1055700097E08916910459F6A6E05A1671F0B2E048
:10558000EB16F1040105110540F0C101A0E0B0E007
:105590008E159F05A007B10728F4F3011182108230
:1055A000552403C0D301ED92FC92852D26960FB6AB
:1055B000F894DEBF0FBECDBFCF91DF911F910F9149
:1055C000FF90EF90DF90CF90BF90AF909F908F9023
:1055D0007F906F905F903F902F900895DF93CF93CF
:1055E00000D0CDB7DEB7FC01658976894FEF5FEF5C
:1055F0009E012F5F3F4F0E94542A982F8823A9F0C5
:105600001092800088E08093810080918100892B36
:105610008093810089819A8190938900809388008A
:1056200080916F00826080936F000F900F90CF91F8
:10563000DF910895CF93DF93EC010E94E125882349
:10564000B9F0D0938106C0938006888D61E00E94F6
:10565000562F8F8960E00E94562F898D61E00E944D
:10566000562FCE010E94B828CE010E94EE2A81E07A
:10567000DF91CF910895AF92BF92CF92DF92EF92D8
:10568000FF920F931F93DF93CF93CDB7DEB7289789
:105690000FB6F894DEBF0FBECDBF5C016B01142FB7
:1056A000F22E0E94CD2587EA91E0F5019183808357
:1056B000D68AC58A178BF08E018FE38EDE01119694
:1056C000EDEDF1E088E001900D928150E1F7D50118
:1056D000A359BF4FFE01319688E001900D92815091
:1056E000E1F728960FB6F894DEBF0FBECDBFCF917D
:1056F000DF911F910F91FF90EF90DF90CF90BF90BF
:10570000AF900895FC0180E680830895EF92FF92A8
:105710000F931F93FC01F62EE42E0FE913E0C8014E
:1057200060810E94F509C8016F2D0E94810AC8019D
:105730006E2D0E94810AC8010E94C40A1F910F9118
:10574000FF90EF900895DF92EF92FF920F931F93D7
:105750008C01D62E8FE9E82E83E0F82EC701F801E0
:1057600060810E94F509C7016D2D0E94810AC70161
:105770000E94C40AC701F801608142E00E94D90A70
:10578000C7010E94120A8C01C7010E94120A382F19
:1057900020E0202B312BC9011F910F91FF90EF903A
:1057A000DF90089564E20E94A32B089562E20E94B4
:1057B000A32B08956CE20E94A32B0895DF92EF9231
:1057C000FF920F931F938C01D62E9FE9E92E93E051
:1057D000F92EC701F80160810E94F509C7016D2DFE
:1057E0000E94810AC7010E94C40AC701F8016081B2
:1057F00041E00E94D90AC7010E94120A1F910F912D
:10580000FF90EF90DF900895FF920F931F938C010C
:10581000F62E67E10E94862B80EAF82AC80168E12B
:105820004F2D0E94862BC8016EE20E94DE2B1F9135
:105830000F91FF9008950F931F938C0168E040E053
:105840000E94862BC80169E040E00E94862BC801B7
:1058500064E040E00E94862BC80165E040E00E94C1
:10586000862BC80166E040E00E94862BC80163E0F9
:1058700040E00E94862BC80161E24FEF0E94862B18
:10588000C80168E141E00E94862B6AE070E080E098
:1058900090E00E94C22EC80167E047E10E94862B7B
:1058A0006AE070E080E090E00E94C22E1F910F91AC
:1058B0000895CF93DF93EC018FE993E00E94DD0A16
:1058C000CE0160E00E94DE2B853411F080E072C0D2
:1058D000CE010E941B2CCE0163E149E20E94862B7F
:1058E000CE0164E149E80E94862BCE0165E142E0E9
:1058F0000E94862BCE0166E140E00E94862BCE01FD
:1059000061E041EB0E94042CCE0163E041E00E9483
:10591000862BCE0164E041E00E94862BCE016FE031
:1059200043E00E94862BCE0167E043E00E94042CF6
:10593000CE0162E041E00E94042CCE016BE040E029
:105940000E94042CCE016AE040E70E94042CCE01A4
:105950006CE044E20E94042CCE016EE040E00E9424
:10596000042CCE016EE140E00E94042CCE016DE1DA
:1059700040E70E94042CCE016FE140E20E94042C1B
:10598000CE0161E140E00E94042CCE0160E140E7DD
:105990000E94042CCE0162E140E20E94042CCE0160
:1059A00068E04FEF0E94862BCE0168E14FE00E9435
:1059B000862B81E0DF91CF9108950F931F93CF93B2
:1059C000DF93BC018230910510F462E070E0E09159
:1059D0003B07F0913C0740E050E0A0E0B0E024C07D
:1059E0008081918186179707D0F08617970771F409
:1059F00082819381109729F013969C938E9312972E
:105A00002CC090933C0780933B0727C0411551055C
:105A100019F08417950718F48D01AC01EF01DF012F
:105A2000828193819C01F9013097D1F6411551058E
:105A3000F9F0CA01861B970B8430910580F48A81A6
:105A40009B810115110521F0F8019383828304C025
:105A500090933C0780933B07FE01329645C0FE01C0
:105A6000E80FF91F619371930297998388833CC073
:105A70008091390790913A07892B41F48091250153
:105A80009091260190933A0780933907409127011E
:105A9000509128014115510541F44DB75EB78091F1
:105AA000230190912401481B590B20913907309113
:105AB0003A0724173507B0F4CA01821B930B8617E7
:105AC000970780F0AB014E5F5F4F8417950750F04A
:105AD000420F531F50933A0740933907F9016193DE
